{
  "address": "0x922D6956C99E12DFeB3224DEA977D0939758A1Fe",
  "abi": [
    {
      "inputs": [
        {
          "internalType": "address",
          "name": "_owner",
          "type": "address"
        },
        {
          "internalType": "address",
          "name": "_nft",
          "type": "address"
        },
        {
          "internalType": "address",
          "name": "_coin",
          "type": "address"
        },
        {
          "internalType": "address",
          "name": "_governanceToken",
          "type": "address"
        }
      ],
      "stateMutability": "nonpayable",
      "type": "constructor"
    },
    {
      "anonymous": false,
      "inputs": [
        {
          "indexed": true,
          "internalType": "uint128",
          "name": "nftId",
          "type": "uint128"
        },
        {
          "indexed": true,
          "internalType": "address",
          "name": "disputer",
          "type": "address"
        },
        {
          "indexed": false,
          "internalType": "bool",
          "name": "isBuyer",
          "type": "bool"
        }
      ],
      "name": "DisputeOpened",
      "type": "event"
    },
    {
      "anonymous": false,
      "inputs": [
        {
          "indexed": true,
          "internalType": "uint128",
          "name": "nftId",
          "type": "uint128"
        },
        {
          "indexed": false,
          "internalType": "bool",
          "name": "voteForBuyer",
          "type": "bool"
        }
      ],
      "name": "DisputeResolved",
      "type": "event"
    },
    {
      "anonymous": false,
      "inputs": [
        {
          "indexed": true,
          "internalType": "uint128",
          "name": "nftId",
          "type": "uint128"
        },
        {
          "indexed": true,
          "internalType": "address",
          "name": "resolver",
          "type": "address"
        },
        {
          "indexed": false,
          "internalType": "bool",
          "name": "voteForBuyer",
          "type": "bool"
        }
      ],
      "name": "DisputeVoted",
      "type": "event"
    },
    {
      "anonymous": false,
      "inputs": [
        {
          "indexed": true,
          "internalType": "uint128",
          "name": "nftId",
          "type": "uint128"
        },
        {
          "indexed": true,
          "internalType": "address",
          "name": "confirmer",
          "type": "address"
        },
        {
          "indexed": false,
          "internalType": "bool",
          "name": "isBuyer",
          "type": "bool"
        }
      ],
      "name": "ItemDelivered",
      "type": "event"
    },
    {
      "anonymous": false,
      "inputs": [
        {
          "indexed": true,
          "internalType": "uint128",
          "name": "nftId",
          "type": "uint128"
        },
        {
          "indexed": true,
          "internalType": "address",
          "name": "lister",
          "type": "address"
        },
        {
          "indexed": false,
          "internalType": "uint128",
          "name": "price",
          "type": "uint128"
        }
      ],
      "name": "Listed",
      "type": "event"
    },
    {
      "anonymous": false,
      "inputs": [
        {
          "indexed": true,
          "internalType": "uint128",
          "name": "nftId",
          "type": "uint128"
        },
        {
          "indexed": true,
          "internalType": "address",
          "name": "buyer",
          "type": "address"
        },
        {
          "indexed": false,
          "internalType": "uint128",
          "name": "price",
          "type": "uint128"
        }
      ],
      "name": "PaymentReceived",
      "type": "event"
    },
    {
      "anonymous": false,
      "inputs": [
        {
          "indexed": true,
          "internalType": "uint128",
          "name": "nftId",
          "type": "uint128"
        },
        {
          "indexed": true,
          "internalType": "address",
          "name": "seller",
          "type": "address"
        },
        {
          "indexed": false,
          "internalType": "uint256",
          "name": "amount",
          "type": "uint256"
        }
      ],
      "name": "PaymentWithdrawn",
      "type": "event"
    },
    {
      "anonymous": false,
      "inputs": [
        {
          "indexed": true,
          "internalType": "address",
          "name": "resolver",
          "type": "address"
        },
        {
          "indexed": false,
          "internalType": "uint256",
          "name": "amount",
          "type": "uint256"
        }
      ],
      "name": "ResolverRewardClaimed",
      "type": "event"
    },
    {
      "anonymous": false,
      "inputs": [
        {
          "indexed": false,
          "internalType": "string",
          "name": "tokenType",
          "type": "string"
        },
        {
          "indexed": false,
          "internalType": "address",
          "name": "oldAddress",
          "type": "address"
        },
        {
          "indexed": false,
          "internalType": "address",
          "name": "newAddress",
          "type": "address"
        }
      ],
      "name": "TokenUpdated",
      "type": "event"
    },
    {
      "inputs": [],
      "name": "RESOLUTION_PERIOD",
      "outputs": [
        {
          "internalType": "uint256",
          "name": "",
          "type": "uint256"
        }
      ],
      "stateMutability": "view",
      "type": "function"
    },
    {
      "inputs": [
        {
          "internalType": "uint256",
          "name": "",
          "type": "uint256"
        }
      ],
      "name": "assetIds",
      "outputs": [
        {
          "internalType": "uint128",
          "name": "",
          "type": "uint128"
        }
      ],
      "stateMutability": "view",
      "type": "function"
    },
    {
      "inputs": [
        {
          "internalType": "uint128",
          "name": "",
          "type": "uint128"
        }
      ],
      "name": "assets",
      "outputs": [
        {
          "internalType": "address",
          "name": "owner",
          "type": "address"
        },
        {
          "internalType": "uint128",
          "name": "price",
          "type": "uint128"
        },
        {
          "internalType": "bool",
          "name": "payedFor",
          "type": "bool"
        },
        {
          "internalType": "bool",
          "name": "booked",
          "type": "bool"
        },
        {
          "internalType": "address",
          "name": "buyer",
          "type": "address"
        },
        {
          "internalType": "bool",
          "name": "buyerChecked",
          "type": "bool"
        },
        {
          "internalType": "bool",
          "name": "sellerChecked",
          "type": "bool"
        },
        {
          "internalType": "bool",
          "name": "disputed",
          "type": "bool"
        }
      ],
      "stateMutability": "view",
      "type": "function"
    },
    {
      "inputs": [],
      "name": "claimResolverReward",
      "outputs": [],
      "stateMutability": "nonpayable",
      "type": "function"
    },
    {
      "inputs": [],
      "name": "coin",
      "outputs": [
        {
          "internalType": "contract IERC20",
          "name": "",
          "type": "address"
        }
      ],
      "stateMutability": "view",
      "type": "function"
    },
    {
      "inputs": [
        {
          "internalType": "uint256",
          "name": "",
          "type": "uint256"
        }
      ],
      "name": "disputeIds",
      "outputs": [
        {
          "internalType": "uint128",
          "name": "",
          "type": "uint128"
        }
      ],
      "stateMutability": "view",
      "type": "function"
    },
    {
      "inputs": [
        {
          "internalType": "uint128",
          "name": "",
          "type": "uint128"
        }
      ],
      "name": "disputeStartTime",
      "outputs": [
        {
          "internalType": "uint256",
          "name": "",
          "type": "uint256"
        }
      ],
      "stateMutability": "view",
      "type": "function"
    },
    {
      "inputs": [
        {
          "internalType": "uint128",
          "name": "",
          "type": "uint128"
        }
      ],
      "name": "disputes",
      "outputs": [
        {
          "internalType": "uint256",
          "name": "id",
          "type": "uint256"
        },
        {
          "internalType": "uint128",
          "name": "nftId",
          "type": "uint128"
        },
        {
          "internalType": "address",
          "name": "buyer",
          "type": "address"
        },
        {
          "internalType": "address",
          "name": "seller",
          "type": "address"
        },
        {
          "internalType": "bool",
          "name": "resolved",
          "type": "bool"
        },
        {
          "internalType": "uint8",
          "name": "buyerVotes",
          "type": "uint8"
        },
        {
          "internalType": "uint8",
          "name": "sellerVotes",
          "type": "uint8"
        }
      ],
      "stateMutability": "view",
      "type": "function"
    },
    {
      "inputs": [],
      "name": "getAllDisputes",
      "outputs": [
        {
          "internalType": "uint128[]",
          "name": "",
          "type": "uint128[]"
        }
      ],
      "stateMutability": "view",
      "type": "function"
    },
    {
      "inputs": [
        {
          "internalType": "address",
          "name": "resolver",
          "type": "address"
        }
      ],
      "name": "getAvailableResolverReward",
      "outputs": [
        {
          "internalType": "uint128",
          "name": "",
          "type": "uint128"
        }
      ],
      "stateMutability": "view",
      "type": "function"
    },
    {
      "inputs": [
        {
          "internalType": "uint128",
          "name": "nftId",
          "type": "uint128"
        }
      ],
      "name": "getDisputeData",
      "outputs": [
        {
          "internalType": "uint256",
          "name": "",
          "type": "uint256"
        },
        {
          "internalType": "uint128",
          "name": "",
          "type": "uint128"
        },
        {
          "internalType": "address",
          "name": "",
          "type": "address"
        },
        {
          "internalType": "address",
          "name": "",
          "type": "address"
        },
        {
          "internalType": "bool",
          "name": "",
          "type": "bool"
        },
        {
          "internalType": "uint128",
          "name": "",
          "type": "uint128"
        },
        {
          "internalType": "uint128",
          "name": "",
          "type": "uint128"
        }
      ],
      "stateMutability": "view",
      "type": "function"
    },
    {
      "inputs": [
        {
          "internalType": "uint256",
          "name": "tokenId",
          "type": "uint256"
        }
      ],
      "name": "getNFTMetadata",
      "outputs": [
        {
          "internalType": "string",
          "name": "",
          "type": "string"
        }
      ],
      "stateMutability": "view",
      "type": "function"
    },
    {
      "inputs": [],
      "name": "getTotalGovernanceToken",
      "outputs": [
        {
          "internalType": "uint256",
          "name": "",
          "type": "uint256"
        }
      ],
      "stateMutability": "view",
      "type": "function"
    },
    {
      "inputs": [],
      "name": "getTotaltotalMarketToken",
      "outputs": [
        {
          "internalType": "uint256",
          "name": "",
          "type": "uint256"
        }
      ],
      "stateMutability": "view",
      "type": "function"
    },
    {
      "inputs": [
        {
          "internalType": "address",
          "name": "user",
          "type": "address"
        }
      ],
      "name": "getUserNFTs",
      "outputs": [
        {
          "internalType": "uint256[]",
          "name": "",
          "type": "uint256[]"
        }
      ],
      "stateMutability": "view",
      "type": "function"
    },
    {
      "inputs": [
        {
          "internalType": "uint256",
          "name": "start",
          "type": "uint256"
        },
        {
          "internalType": "uint256",
          "name": "end",
          "type": "uint256"
        }
      ],
      "name": "get_listings",
      "outputs": [
        {
          "internalType": "uint256[]",
          "name": "",
          "type": "uint256[]"
        }
      ],
      "stateMutability": "view",
      "type": "function"
    },
    {
      "inputs": [
        {
          "internalType": "uint128",
          "name": "nftId",
          "type": "uint128"
        }
      ],
      "name": "get_payment",
      "outputs": [],
      "stateMutability": "nonpayable",
      "type": "function"
    },
    {
      "inputs": [
        {
          "internalType": "uint128",
          "name": "nftId",
          "type": "uint128"
        }
      ],
      "name": "get_stock_data",
      "outputs": [
        {
          "components": [
            {
              "internalType": "address",
              "name": "owner",
              "type": "address"
            },
            {
              "internalType": "uint128",
              "name": "price",
              "type": "uint128"
            },
            {
              "internalType": "bool",
              "name": "payedFor",
              "type": "bool"
            },
            {
              "internalType": "bool",
              "name": "booked",
              "type": "bool"
            },
            {
              "internalType": "address",
              "name": "buyer",
              "type": "address"
            },
            {
              "internalType": "bool",
              "name": "buyerChecked",
              "type": "bool"
            },
            {
              "internalType": "bool",
              "name": "sellerChecked",
              "type": "bool"
            },
            {
              "internalType": "bool",
              "name": "disputed",
              "type": "bool"
            }
          ],
          "internalType": "struct CropMarketplace.AssetData",
          "name": "",
          "type": "tuple"
        }
      ],
      "stateMutability": "view",
      "type": "function"
    },
    {
      "inputs": [
        {
          "internalType": "uint128",
          "name": "limit",
          "type": "uint128"
        },
        {
          "internalType": "address",
          "name": "user",
          "type": "address"
        }
      ],
      "name": "get_user_listing",
      "outputs": [
        {
          "internalType": "uint128[]",
          "name": "",
          "type": "uint128[]"
        }
      ],
      "stateMutability": "view",
      "type": "function"
    },
    {
      "inputs": [
        {
          "internalType": "uint128",
          "name": "limit",
          "type": "uint128"
        },
        {
          "internalType": "address",
          "name": "user",
          "type": "address"
        }
      ],
      "name": "get_user_purchase",
      "outputs": [
        {
          "internalType": "uint128[]",
          "name": "",
          "type": "uint128[]"
        }
      ],
      "stateMutability": "view",
      "type": "function"
    },
    {
      "inputs": [],
      "name": "governanceToken",
      "outputs": [
        {
          "internalType": "contract IERC20",
          "name": "",
          "type": "address"
        }
      ],
      "stateMutability": "view",
      "type": "function"
    },
    {
      "inputs": [
        {
          "internalType": "uint128",
          "name": "",
          "type": "uint128"
        },
        {
          "internalType": "address",
          "name": "",
          "type": "address"
        }
      ],
      "name": "hasVoted",
      "outputs": [
        {
          "internalType": "bool",
          "name": "",
          "type": "bool"
        }
      ],
      "stateMutability": "view",
      "type": "function"
    },
    {
      "inputs": [
        {
          "internalType": "address",
          "name": "",
          "type": "address"
        }
      ],
      "name": "isResolver",
      "outputs": [
        {
          "internalType": "bool",
          "name": "",
          "type": "bool"
        }
      ],
      "stateMutability": "view",
      "type": "function"
    },
    {
      "inputs": [
        {
          "internalType": "uint128",
          "name": "nftId",
          "type": "uint128"
        },
        {
          "internalType": "uint128",
          "name": "price",
          "type": "uint128"
        }
      ],
      "name": "list_for_sale",
      "outputs": [
        {
          "internalType": "bool",
          "name": "",
          "type": "bool"
        }
      ],
      "stateMutability": "nonpayable",
      "type": "function"
    },
    {
      "inputs": [
        {
          "internalType": "uint128",
          "name": "nftId",
          "type": "uint128"
        },
        {
          "internalType": "bool",
          "name": "isBuyer",
          "type": "bool"
        }
      ],
      "name": "mark_as_delivered",
      "outputs": [],
      "stateMutability": "nonpayable",
      "type": "function"
    },
    {
      "inputs": [],
      "name": "minResolvers",
      "outputs": [
        {
          "internalType": "uint256",
          "name": "",
          "type": "uint256"
        }
      ],
      "stateMutability": "view",
      "type": "function"
    },
    {
      "inputs": [
        {
          "internalType": "address",
          "name": "to",
          "type": "address"
        },
        {
          "internalType": "string",
          "name": "uri",
          "type": "string"
        }
      ],
      "name": "mintNFT",
      "outputs": [],
      "stateMutability": "nonpayable",
      "type": "function"
    },
    {
      "inputs": [],
      "name": "name",
      "outputs": [
        {
          "internalType": "string",
          "name": "",
          "type": "string"
        }
      ],
      "stateMutability": "view",
      "type": "function"
    },
    {
      "inputs": [],
      "name": "nft",
      "outputs": [
        {
          "internalType": "contract CropNft",
          "name": "",
          "type": "address"
        }
      ],
      "stateMutability": "view",
      "type": "function"
    },
    {
      "inputs": [
        {
          "internalType": "uint128",
          "name": "nftId",
          "type": "uint128"
        }
      ],
      "name": "openDispute",
      "outputs": [],
      "stateMutability": "nonpayable",
      "type": "function"
    },
    {
      "inputs": [],
      "name": "owner",
      "outputs": [
        {
          "internalType": "address",
          "name": "",
          "type": "address"
        }
      ],
      "stateMutability": "view",
      "type": "function"
    },
    {
      "inputs": [
        {
          "internalType": "uint128",
          "name": "nftId",
          "type": "uint128"
        },
        {
          "internalType": "bool",
          "name": "withXfi",
          "type": "bool"
        }
      ],
      "name": "payForStock",
      "outputs": [
        {
          "internalType": "bool",
          "name": "",
          "type": "bool"
        }
      ],
      "stateMutability": "payable",
      "type": "function"
    },
    {
      "inputs": [],
      "name": "registerResolver",
      "outputs": [],
      "stateMutability": "nonpayable",
      "type": "function"
    },
    {
      "inputs": [
        {
          "internalType": "uint128",
          "name": "nftId",
          "type": "uint128"
        }
      ],
      "name": "resolveDispute",
      "outputs": [],
      "stateMutability": "nonpayable",
      "type": "function"
    },
    {
      "inputs": [
        {
          "internalType": "address",
          "name": "",
          "type": "address"
        }
      ],
      "name": "resolverReward",
      "outputs": [
        {
          "internalType": "uint128",
          "name": "",
          "type": "uint128"
        }
      ],
      "stateMutability": "view",
      "type": "function"
    },
    {
      "inputs": [
        {
          "internalType": "address",
          "name": "",
          "type": "address"
        }
      ],
      "name": "resolverStake",
      "outputs": [
        {
          "internalType": "uint256",
          "name": "",
          "type": "uint256"
        }
      ],
      "stateMutability": "view",
      "type": "function"
    },
    {
      "inputs": [],
      "name": "resolverStakeRequirement",
      "outputs": [
        {
          "internalType": "uint256",
          "name": "",
          "type": "uint256"
        }
      ],
      "stateMutability": "view",
      "type": "function"
    },
    {
      "inputs": [
        {
          "internalType": "address",
          "name": "_newCoin",
          "type": "address"
        }
      ],
      "name": "updateCoinAddress",
      "outputs": [],
      "stateMutability": "nonpayable",
      "type": "function"
    },
    {
      "inputs": [
        {
          "internalType": "address",
          "name": "_newGovToken",
          "type": "address"
        }
      ],
      "name": "updateGovernanceTokenAddress",
      "outputs": [],
      "stateMutability": "nonpayable",
      "type": "function"
    },
    {
      "inputs": [
        {
          "internalType": "address",
          "name": "_newNFT",
          "type": "address"
        }
      ],
      "name": "updateNFTAddress",
      "outputs": [],
      "stateMutability": "nonpayable",
      "type": "function"
    },
    {
      "inputs": [
        {
          "internalType": "address",
          "name": "user",
          "type": "address"
        }
      ],
      "name": "user_govern_data",
      "outputs": [
        {
          "components": [
            {
              "internalType": "bool",
              "name": "isResolver",
              "type": "bool"
            },
            {
              "internalType": "uint256",
              "name": "staked",
              "type": "uint256"
            },
            {
              "internalType": "uint128",
              "name": "reward",
              "type": "uint128"
            }
          ],
          "internalType": "struct CropMarketplace.userGovData",
          "name": "",
          "type": "tuple"
        }
      ],
      "stateMutability": "view",
      "type": "function"
    },
    {
      "inputs": [
        {
          "internalType": "uint128",
          "name": "nftId",
          "type": "uint128"
        },
        {
          "internalType": "bool",
          "name": "voteForBuyer",
          "type": "bool"
        }
      ],
      "name": "voteOnDispute",
      "outputs": [],
      "stateMutability": "nonpayable",
      "type": "function"
    },
    {
      "stateMutability": "payable",
      "type": "receive"
    }
  ],
  "transactionHash": "0xd5198bb903f0ac55c57b4e1ca186203ef2b62046c6af755a63133ba7db95d023",
  "args": [
    "0xf39Fd6e51aad88F6F4ce6aB8827279cffFb92266",
    "0xCD8a1C3ba11CF5ECfa6267617243239504a98d90",
    "0x1429859428C0aBc9C2C47C8Ee9FBaf82cFA0F20f",
    "0x1429859428C0aBc9C2C47C8Ee9FBaf82cFA0F20f"
  ],
  "numDeployments": 2,
  "solcInputHash": "cb1d07ed30c982d28a3013330669ad96",
  "bytecode": "0x60e0604052600860a090815267043726f70537761760c41b60c05260009062000029908262000168565b50600060055560006006556005600755683635c9adc5dea00000600c556001600e553480156200005857600080fd5b5060405162003fc138038062003fc18339810160408190526200007b9162000251565b6001600160a01b03938416608052600180549385166001600160a01b0319948516179055600280549285169284169290921790915560038054919093169116179055620002ae565b634e487b7160e01b600052604160045260246000fd5b600181811c90821680620000ee57607f821691505b6020821081036200010f57634e487b7160e01b600052602260045260246000fd5b50919050565b601f8211156200016357600081815260208120601f850160051c810160208610156200013e5750805b601f850160051c820191505b818110156200015f578281556001016200014a565b5050505b505050565b81516001600160401b03811115620001845762000184620000c3565b6200019c81620001958454620000d9565b8462000115565b602080601f831160018114620001d45760008415620001bb5750858301515b600019600386901b1c1916600185901b1785556200015f565b600085815260208120601f198616915b828110156200020557888601518255948401946001909101908401620001e4565b5085821015620002245787850151600019600388901b60f8161c191681555b5050505050600190811b01905550565b80516001600160a01b03811681146200024c57600080fd5b919050565b600080600080608085870312156200026857600080fd5b620002738562000234565b9350620002836020860162000234565b9250620002936040860162000234565b9150620002a36060860162000234565b905092959194509250565b608051613ccd620002f4600039600081816108570152818161177f01528181611b8001528181611c4a015281816129f2015281816131f501526132cb0152613ccd6000f3fe6080604052600436106102555760003560e01c806387541ed611610139578063c295f3bc116100b6578063dde9411d1161007a578063dde9411d14610ab8578063de2cc52a14610acb578063e76e3e8d14610aeb578063eacabe1414610b21578063edae825d14610b41578063f96dae0a14610b5757600080fd5b8063c295f3bc1461095f578063c65508a114610974578063d29fb13e14610994578063d2d36d40146109c1578063d2f0b0c5146109d657600080fd5b8063a121ad33116100fd578063a121ad33146108bf578063a1345dd4146108df578063acc8a85f146108ff578063afd3f8231461091f578063b43ec95a1461093f57600080fd5b806387541ed61461080557806387e4be4c146108255780638da5cb5b146108455780639db9675b146108795780639ea7d5871461088f57600080fd5b8063331d4d17116101d25780635924eec5116101965780635924eec51461071657806360888e2e14610736578063686d1ec01461074b5780636be9a6f11461079857806371903fbb146107b857806385947483146107d857600080fd5b8063331d4d17146104d657806347ccca02146105a05780634a4e621b146105c057806350f90594146106d157806352de4ee5146106f657600080fd5b80631dd9997f116102195780631dd9997f1461035357806321fa9d5214610368578063277b4b3b1461043257806327985da51461045f57806329f72ae2146104b657600080fd5b806306fdde03146102615780630d4800ae1461028c5780630f5c4969146102d757806311df9995146102ee57806318e485991461032657600080fd5b3661025c57005b600080fd5b34801561026d57600080fd5b50610276610b77565b60405161028391906134e9565b60405180910390f35b34801561029857600080fd5b506102c76102a7366004613537565b601060209081526000928352604080842090915290825290205460ff1681565b6040519015158152602001610283565b3480156102e357600080fd5b506102ec610c05565b005b3480156102fa57600080fd5b5060025461030e906001600160a01b031681565b6040516001600160a01b039091168152602001610283565b34801561033257600080fd5b50610346610341366004613537565b610e18565b604051610283919061356e565b34801561035f57600080fd5b50610346610fa5565b34801561037457600080fd5b506103e16103833660046135bb565b6008602052600090815260409020805460018201546002830154600384015460069094015492936001600160801b03909216926001600160a01b03918216929182169160ff600160a01b909104811691808216916101009091041687565b604080519788526001600160801b0390961660208801526001600160a01b03948516958701959095529290911660608501521515608084015260ff90811660a08401521660c082015260e001610283565b34801561043e57600080fd5b5061045261044d3660046135d6565b61102f565b60405161028391906135f8565b34801561046b57600080fd5b5061049e61047a366004613630565b6001600160a01b03166000908152600b60205260409020546001600160801b031690565b6040516001600160801b039091168152602001610283565b3480156104c257600080fd5b506102ec6104d13660046135bb565b611179565b3480156104e257600080fd5b506105556104f13660046135bb565b6001600160801b0390811660009081526008602052604090208054600182015460028301546003840154600690940154929591909416936001600160a01b039081169390811692600160a01b90910460ff9081169281831692610100900490911690565b604080519788526001600160801b0396871660208901526001600160a01b039586169088015293909216606086015215156080850152821660a08401521660c082015260e001610283565b3480156105ac57600080fd5b5060015461030e906001600160a01b031681565b3480156105cc57600080fd5b506106c46105db3660046135bb565b6040805161010081018252600080825260208201819052918101829052606081018290526080810182905260a0810182905260c0810182905260e0810191909152506001600160801b0390811660009081526004602090815260409182902082516101008101845281546001600160a01b03908116825260018301549586169382019390935260ff600160801b86048116151594820194909452600160881b909404831615156060850152600201549081166080840152600160a01b81048216151560a0840152600160a81b81048216151560c0840152600160b01b900416151560e082015290565b604051610283919061364d565b3480156106dd57600080fd5b506106e862093a8081565b604051908152602001610283565b34801561070257600080fd5b50610452610711366004613630565b6114c9565b34801561072257600080fd5b506102ec6107313660046135bb565b61153c565b34801561074257600080fd5b506106e861177b565b34801561075757600080fd5b5061076b610766366004613630565b6117cc565b6040805182511515815260208084015190820152918101516001600160801b031690820152606001610283565b3480156107a457600080fd5b506102766107b33660046136e8565b611889565b3480156107c457600080fd5b506102ec6107d336600461370f565b6118fb565b3480156107e457600080fd5b506106e86107f33660046135bb565b600f6020526000908152604090205481565b34801561081157600080fd5b5061049e6108203660046136e8565b611b41565b34801561083157600080fd5b506102ec610840366004613630565b611b7e565b34801561085157600080fd5b5061030e7f000000000000000000000000000000000000000000000000000000000000000081565b34801561088557600080fd5b506106e8600c5481565b34801561089b57600080fd5b506102c76108aa366004613630565b600a6020526000908152604090205460ff1681565b3480156108cb57600080fd5b506102ec6108da366004613630565b611c48565b3480156108eb57600080fd5b506102ec6108fa3660046135bb565b611d13565b34801561090b57600080fd5b5061049e61091a3660046136e8565b612355565b34801561092b57600080fd5b506102c761093a36600461373b565b612365565b34801561094b57600080fd5b5061034661095a366004613537565b612866565b34801561096b57600080fd5b506106e86129ee565b34801561098057600080fd5b506102ec61098f36600461370f565b612a3f565b3480156109a057600080fd5b506106e86109af366004613630565b600d6020526000908152604090205481565b3480156109cd57600080fd5b506102ec612c96565b3480156109e257600080fd5b50610a5d6109f13660046135bb565b6004602052600090815260409020805460018201546002909201546001600160a01b03918216926001600160801b0381169260ff600160801b8304811693600160881b90930481169291821691600160a01b8104821691600160a81b8204811691600160b01b90041688565b604080516001600160a01b03998a1681526001600160801b0390981660208901529515159587019590955292151560608601529416608084015292151560a083015291151560c082015290151560e082015261010001610283565b6102c7610ac636600461370f565b612e5a565b348015610ad757600080fd5b506102ec610ae6366004613630565b6131f3565b348015610af757600080fd5b5061049e610b06366004613630565b600b602052600090815260409020546001600160801b031681565b348015610b2d57600080fd5b506102ec610b3c3660046137dd565b6132c9565b348015610b4d57600080fd5b506106e860075481565b348015610b6357600080fd5b5060035461030e906001600160a01b031681565b60008054610b8490613870565b80601f0160208091040260200160405190810160405280929190818152602001828054610bb090613870565b8015610bfd5780601f10610bd257610100808354040283529160200191610bfd565b820191906000526020600020905b815481529060010190602001808311610be057829003601f168201915b505050505081565b336000908152600a602052604090205460ff1615610c5d5760405162461bcd60e51b815260206004820152601060248201526f20a62922a0a22cafa922a9a7a62b22a960811b60448201526064015b60405180910390fd5b600c546003546040516370a0823160e01b81523360048201526001600160a01b03909116906370a0823190602401602060405180830381865afa158015610ca8573d6000803e3d6000fd5b505050506040513d601f19601f82011682018060405250810190610ccc91906138aa565b1015610d115760405162461bcd60e51b8152602060048201526014602482015273494e53554646494349454e545f42414c414e434560601b6044820152606401610c54565b600354600c546040516323b872dd60e01b815233600482015230602482015260448101919091526001600160a01b03909116906323b872dd906064016020604051808303816000875af1158015610d6c573d6000803e3d6000fd5b505050506040513d601f19601f82011682018060405250810190610d9091906138c3565b610dd45760405162461bcd60e51b815260206004820152601560248201527414d51052d157d514905394d1915497d19052531151605a1b6044820152606401610c54565b336000908152600a60209081526040808320805460ff19166001179055600c54600d90925282208190556005805491929091610e119084906138f6565b9091555050565b60606000836001600160801b031667ffffffffffffffff811115610e3e57610e3e61376e565b604051908082528060200260200182016040528015610e67578160200160208202803683370190505b5090506000805b6011546001600160801b0382161015610f9957856001600160801b0316816001600160801b03161015610f99576000600460006011846001600160801b031681548110610ebd57610ebd613909565b6000918252602080832060028304015460019092166010026101000a9091046001600160801b03168352820192909252604001902080549091506001600160a01b03878116911603610f86576011826001600160801b031681548110610f2557610f25613909565b90600052602060002090600291828204019190066010029054906101000a90046001600160801b0316848481518110610f6057610f60613909565b6001600160801b039092166020928302919091019091015282610f828161391f565b9350505b5080610f9181613938565b915050610e6e565b50909150505b92915050565b6060600980548060200260200160405190810160405280929190818152602001828054801561102557602002820191906000526020600020906000905b82829054906101000a90046001600160801b03166001600160801b031681526020019060100190602082600f01049283019260010382029150808411610fe25790505b5050505050905090565b6060600061103d848461395e565b67ffffffffffffffff8111156110555761105561376e565b60405190808252806020026020018201604052801561107e578160200160208202803683370190505b5090506000845b6011548110801561109557508481105b15610f995760046000601183815481106110b1576110b1613909565b6000918252602080832060028304015460019283166010026101000a90046001600160801b03168452830193909352604090910190200154600160801b900460ff16611167576011818154811061110a5761110a613909565b90600052602060002090600291828204019190066010029054906101000a90046001600160801b03166001600160801b031683838151811061114e5761114e613909565b6020908102919091010152816111638161391f565b9250505b806111718161391f565b915050611085565b60125460ff161561119c5760405162461bcd60e51b8152600401610c5490613971565b6012805460ff191660019081179091556001600160801b038216600090815260046020526040902090810154600160801b900460ff1661120e5760405162461bcd60e51b815260206004820152600d60248201526c2727aa2fa820aca2a22fa327a960991b6044820152606401610c54565b80546001600160a01b031633146112535760405162461bcd60e51b81526020600482015260096024820152682727aa2fa7aba722a960b91b6044820152606401610c54565b6002810154600160a01b900460ff166112a35760405162461bcd60e51b8152602060048201526012602482015271109556515497d393d517d59154925192515160721b6044820152606401610c54565b6002810154600160a81b900460ff166112f45760405162461bcd60e51b815260206004820152601360248201527214d15313115497d393d517d591549251925151606a1b6044820152606401610c54565b6001810154600090600a90611313906001600160801b03166009613999565b61131d91906139da565b60025460405163a9059cbb60e01b81523360048201526001600160801b03831660248201529192506000916001600160a01b039091169063a9059cbb906044016020604051808303816000875af115801561137c573d6000803e3d6000fd5b505050506040513d601f19601f820116820180604052508101906113a091906138c3565b9050806113bf5760405162461bcd60e51b8152600401610c5490613a00565b6001546002840154604051632142170760e11b81526001600160a01b03928316926342842e0e926113fa923092909116908990600401613a29565b600060405180830381600087803b15801561141457600080fd5b505af1158015611428573d6000803e3d6000fd5b505050506001600160801b0384811660008181526004602090815260409182902080546001600160a01b031916815560018101805471ffffffffffffffffffffffffffffffffffff1916905560020180546001600160b81b03191690559051928516835233927f93e7dd2a1d95817daaebba1c9458b56d203d8a7bc5ed4c493b2c69acc9f07894910160405180910390a350506012805460ff191690555050565b60015460405163f28e34a960e01b81526001600160a01b038381166004830152606092169063f28e34a990602401600060405180830381865afa158015611514573d6000803e3d6000fd5b505050506040513d6000823e601f3d908101601f19168201604052610f9f9190810190613a55565b6001600160801b03811660009081526004602052604090206001810154600160801b900460ff166115a25760405162461bcd60e51b815260206004820152601060248201526f5041594d454e545f4e4f545f4d41444560801b6044820152606401610c54565b60028101546001600160a01b03163314806115c6575080546001600160a01b031633145b6116015760405162461bcd60e51b815260206004820152600c60248201526b1393d517d2539593d315915160a21b6044820152606401610c54565b6001600160801b03821660009081526008602052604090206003810154600160a01b900460ff16156116455760405162461bcd60e51b8152600401610c5490613afb565b6001600160801b038084166000818152600f6020526040812042905560098054600181810183559282905260028082047f6e1540171b6c0c960b71a7020d9f60077f6af931a8bbf590da0223dacf75c7af0180546010938616939093026101000a808702970219909216959095179055858401805460ff60b01b1916600160b01b17815585830180546001600160801b031916909417909355915492840180546001600160a01b03199081166001600160a01b039586161790915585546003860180549092169416939093179092555461171f919061395e565b81556002820154604051336001600160a01b03909216821480825291906001600160801b038616907f6f6fd7af658f7fe272ccf781986e7a9d4c3029e7067bb3d6a43c0fbb13652fcb906020015b60405180910390a350505050565b60007f00000000000000000000000000000000000000000000000000000000000000006001600160a01b031633146117c55760405162461bcd60e51b8152600401610c5490613b25565b5060065490565b60408051606081018252600080825260208201819052918101919091526001600160a01b0382166118315760405162461bcd60e51b815260206004820152600f60248201526e496e76616c6964206164647265737360881b6044820152606401610c54565b50604080516060810182526001600160a01b039092166000818152600a60209081528382205460ff1615158552828252600d81528382205481860152918152600b909152819020546001600160801b03169082015290565b60015460405163c87b56dd60e01b8152600481018390526060916001600160a01b03169063c87b56dd90602401600060405180830381865afa1580156118d3573d6000803e3d6000fd5b505050506040513d6000823e601f3d908101601f19168201604052610f9f9190810190613b4b565b60125460ff161561191e5760405162461bcd60e51b8152600401610c5490613971565b6012805460ff191660019081179091556001600160801b038316600090815260046020526040902090810154600160801b900460ff166119905760405162461bcd60e51b815260206004820152600d60248201526c2727aa2fa820aca2a22fa327a960991b6044820152606401610c54565b8115611a465760028101546001600160a01b031633146119de5760405162461bcd60e51b81526020600482015260096024820152682727aa2fa13abcb2b960b91b6044820152606401610c54565b6002810154600160a01b900460ff1615611a2c5760405162461bcd60e51b815260206004820152600f60248201526e1053149150511657d0d21150d2d151608a1b6044820152606401610c54565b60028101805460ff60a01b1916600160a01b179055611af0565b80546001600160a01b03163314611a8c5760405162461bcd60e51b815260206004820152600a6024820152692727aa2fa9a2a62622a960b11b6044820152606401610c54565b6002810154600160a81b900460ff1615611ada5760405162461bcd60e51b815260206004820152600f60248201526e1053149150511657d0d21150d2d151608a1b6044820152606401610c54565b60028101805460ff60a81b1916600160a81b1790555b604051821515815233906001600160801b038516907fbcaa63eb2e22c5280fb475efca4d82d5ba62fc379dcf1f2e0ad3e0fe314867f79060200160405180910390a350506012805460ff1916905550565b60118181548110611b5157600080fd5b9060005260206000209060029182820401919006601002915054906101000a90046001600160801b031681565b7f00000000000000000000000000000000000000000000000000000000000000006001600160a01b03163314611bc65760405162461bcd60e51b8152600401610c5490613b25565b6001546040805160608082526003908201526213919560ea1b60808201526001600160a01b03928316602082015291831682820152517fe1dfa83513a4b65c296bc64d8a68945cb723d798739225012d7167dbb2d6e3fc9181900360a00190a1600180546001600160a01b0319166001600160a01b0392909216919091179055565b7f00000000000000000000000000000000000000000000000000000000000000006001600160a01b03163314611c905760405162461bcd60e51b8152600401610c5490613b25565b6002546040805160608082526004908201526321b7b4b760e11b60808201526001600160a01b03928316602082015291831682820152517fe1dfa83513a4b65c296bc64d8a68945cb723d798739225012d7167dbb2d6e3fc9181900360a00190a1600280546001600160a01b0319166001600160a01b0392909216919091179055565b6001600160801b03811660009081526008602052604090206003810154600160a01b900460ff1615611d575760405162461bcd60e51b8152600401610c5490613afb565b60075460048201541015611da35760405162461bcd60e51b81526020600482015260136024820152724e4f545f454e4f5547485f52454f4c5645525360681b6044820152606401610c54565b6001600160801b0382166000908152600f6020526040902054611dca9062093a80906138f6565b421115611e195760405162461bcd60e51b815260206004820152601960248201527f5245534f4c5554494f4e5f504552494f445f45585049524544000000000000006044820152606401610c54565b6007546006820154611e359060ff610100820481169116613bc2565b60ff161015611e795760405162461bcd60e51b815260206004820152601060248201526f4e4f545f454e4f5547485f564f54455360801b6044820152606401610c54565b6001600160801b038083166000908152600460205260408120600101549091600a91611ea791166009613999565b611eb191906139da565b6001600160801b0380851660009081526004602052604081206001015492935091611ede91849116613bdb565b600684015490915060ff6101008204811691161180156120145760028054908501546001600160801b0380881660009081526004602081905260408083206001015490516323b872dd60e01b815292956001600160a01b03908116956323b872dd95611f539530959290931693169101613a29565b6020604051808303816000875af1158015611f72573d6000803e3d6000fd5b505050506040513d601f19601f82011682018060405250810190611f9691906138c3565b905080611fd55760405162461bcd60e51b815260206004820152600d60248201526c14915195539117d19052531151609a1b6044820152606401610c54565b6001600160801b03808716600090815260046020526040812060010154600680549190931692919061200890849061395e565b9091555061212c915050565b60025460038501546001600160801b0380881660009081526004602081905260408083206001015490516323b872dd60e01b815292956001600160a01b03908116956323b872dd9561206f9530959290931693169101613a29565b6020604051808303816000875af115801561208e573d6000803e3d6000fd5b505050506040513d601f19601f820116820180604052508101906120b291906138c3565b9050806120f25760405162461bcd60e51b815260206004820152600e60248201526d1410565351539517d1905253115160921b6044820152606401610c54565b6001600160801b03808716600090815260046020526040812060010154600680549190931692919061212590849061395e565b9091555050505b6000805b60048601548110156121a95782151586600501600088600401848154811061215a5761215a613909565b60009182526020808320909101546001600160a01b0316835282019290925260400190205460ff1615150361219757816121938161391f565b9250505b806121a18161391f565b915050612130565b50600081116121f25760405162461bcd60e51b81526020600482015260156024820152744e4f5f454c494749424c455f5245534f4c5645525360581b6044820152606401610c54565b6000612207826001600160801b038616613bfb565b905060005b60048701548110156122de57600087600401828154811061222f5761222f613909565b60009182526020808320909101546001600160a01b031680835260058b0190915260409091205490915085151560ff9091161515036122c2576001600160a01b0381166000908152600b6020526040812080548592906122999084906001600160801b0316613c0f565b92506101000a8154816001600160801b0302191690836001600160801b031602179055506122cb565b6122cb81613379565b50806122d68161391f565b91505061220c565b5060038601805460ff60a01b1916600160a01b17905560068601546040516001600160801b038916917f6c6a8732e657ddd863bda916ae9f3e292befddeb279da3d3a18e7004ee5453be9161234491610100810460ff9081169116111515815260200190565b60405180910390a250505050505050565b60098181548110611b5157600080fd5b60125460009060ff161561238b5760405162461bcd60e51b8152600401610c5490613971565b6012805460ff19166001908117909155546040516331a9108f60e11b81526001600160801b038516600482015233916001600160a01b031690636352211e90602401602060405180830381865afa1580156123ea573d6000803e3d6000fd5b505050506040513d601f19601f8201168201806040525081019061240e9190613c2f565b6001600160a01b0316146124505760405162461bcd60e51b81526020600482015260096024820152681393d517d3d5d3915160ba1b6044820152606401610c54565b60015460405163e985e9c560e01b81523360048201523060248201526001600160a01b039091169063e985e9c590604401602060405180830381865afa15801561249e573d6000803e3d6000fd5b505050506040513d601f19601f820116820180604052508101906124c291906138c3565b80612548575060015460405163020604bf60e21b81526001600160801b038516600482015230916001600160a01b03169063081812fc90602401602060405180830381865afa158015612519573d6000803e3d6000fd5b505050506040513d601f19601f8201168201806040525081019061253d9190613c2f565b6001600160a01b0316145b6125835760405162461bcd60e51b815260206004820152600c60248201526b1393d517d054141493d5915160a21b6044820152606401610c54565b6001546040516323b872dd60e01b81526001600160a01b03909116906323b872dd906125b790339030908890600401613a29565b600060405180830381600087803b1580156125d157600080fd5b505af11580156125e5573d6000803e3d6000fd5b505050506000604051806101000160405280336001600160a01b03168152602001846001600160801b0316815260200160001515815260200160001515815260200160006001600160a01b031681526020016000151581526020016000151581526020016000151581525090508060046000866001600160801b03166001600160801b0316815260200190815260200160002060008201518160000160006101000a8154816001600160a01b0302191690836001600160a01b0316021790555060208201518160010160006101000a8154816001600160801b0302191690836001600160801b0316021790555060408201518160010160106101000a81548160ff02191690831515021790555060608201518160010160116101000a81548160ff02191690831515021790555060808201518160020160006101000a8154816001600160a01b0302191690836001600160a01b0316021790555060a08201518160020160146101000a81548160ff02191690831515021790555060c08201518160020160156101000a81548160ff02191690831515021790555060e08201518160020160166101000a81548160ff02191690831515021790555090505060118490806001815401808255809150506001900390600052602060002090600291828204019190066010029091909190916101000a8154816001600160801b0302191690836001600160801b03160217905550336001600160a01b0316846001600160801b03167f09e64470cc3cb85571105697eda64b9277045d2041954b7593b320346d0f29738560405161284891906001600160801b0391909116815260200190565b60405180910390a360019150505b6012805460ff1916905592915050565b60606000836001600160801b031667ffffffffffffffff81111561288c5761288c61376e565b6040519080825280602002602001820160405280156128b5578160200160208202803683370190505b5090506000805b6011546001600160801b0382161015610f9957856001600160801b0316816001600160801b03161015610f99576000600460006011846001600160801b03168154811061290b5761290b613909565b6000918252602080832060028084049091015460019093166010026101000a9092046001600160801b0316845283019390935260409091019020908101549091506001600160a01b038781169116036129db576011826001600160801b03168154811061297a5761297a613909565b90600052602060002090600291828204019190066010029054906101000a90046001600160801b03168484815181106129b5576129b5613909565b6001600160801b0390921660209283029190910190910152826129d78161391f565b9350505b50806129e681613938565b9150506128bc565b60007f00000000000000000000000000000000000000000000000000000000000000006001600160a01b03163314612a385760405162461bcd60e51b8152600401610c5490613b25565b5060055490565b336000908152600a6020526040902054829060ff16612a705760405162461bcd60e51b8152600401610c5490613b25565b6001600160801b038116600090815260086020908152604080832033845260050190915290205460ff1615612ad75760405162461bcd60e51b815260206004820152600d60248201526c1053149150511657d593d51151609a1b6044820152606401610c54565b6001600160801b03831660009081526008602052604090206003810154600160a01b900460ff1615612b1b5760405162461bcd60e51b8152600401610c5490613afb565b6001600160801b038416600090815260106020908152604080832033845290915290205460ff1615612b7f5760405162461bcd60e51b815260206004820152600d60248201526c1053149150511657d593d51151609a1b6044820152606401610c54565b33600081815260058301602090815260408220805460ff19168715801591909117909155600485018054600181018255908452919092200180546001600160a01b031916909217909155612c005760068101805460ff16906000612be283613c4c565b91906101000a81548160ff021916908360ff16021790555050612c34565b600681018054610100900460ff16906001612c1a83613c4c565b91906101000a81548160ff021916908360ff160217905550505b6001600160801b03841660008181526010602090815260408083203380855290835292819020805460ff191660011790555186151581529192917fa2c24c15b2049e14a4f9a083a8a5b576cf9960ddbedbd13a4c08ad921ca497d1910161176d565b60125460ff1615612cb95760405162461bcd60e51b8152600401610c5490613971565b6012805460ff19166001179055336000908152600a602052604090205460ff16612cf55760405162461bcd60e51b8152600401610c5490613b25565b336000908152600b60205260409020546001600160801b031680612d515760405162461bcd60e51b81526020600482015260136024820152724e4f5f5245574152445f415641494c41424c4560681b6044820152606401610c54565b336000818152600b602052604080822080546001600160801b0319169055600254905163a9059cbb60e01b815260048101939093526001600160801b038416602484015290916001600160a01b039091169063a9059cbb906044016020604051808303816000875af1158015612dcb573d6000803e3d6000fd5b505050506040513d601f19601f82011682018060405250810190612def91906138c3565b905080612e0e5760405162461bcd60e51b8152600401610c5490613a00565b6040516001600160801b038316815233907ffca7b1a530dd69bc597e6fed3c391752f532d6f1372382442defed7f779416fd9060200160405180910390a250506012805460ff19169055565b60125460009060ff1615612e805760405162461bcd60e51b8152600401610c5490613971565b6012805460ff191660019081179091556001600160801b0380851660009081526004602052604090209182015416612eea5760405162461bcd60e51b815260206004820152600d60248201526c494e56414c49445f505249434560981b6044820152606401610c54565b8054336001600160a01b0390911603612f3c5760405162461bcd60e51b815260206004820152601460248201527310d0539517d0955657d653d55497d41493d110d560621b6044820152606401610c54565b821561300a5760018101546001600160801b0316341015612f905760405162461bcd60e51b815260206004820152600e60248201526d4e4f545f454e4f5547485f58464960901b6044820152606401610c54565b60018101805460ff60801b198116600160801b179091556002820180546001600160a01b031916339081179091556040516001600160801b03928316815290918616907f559fc5bc8ed2bfe26d9c4c72e91c32b86465d9c5c043fb1df2414da482c4ad519060200160405180910390a36001915050612856565b6001810154600254604051636eb1769f60e11b81523360048201523060248201526001600160801b03909216916001600160a01b039091169063dd62ed3e90604401602060405180830381865afa158015613069573d6000803e3d6000fd5b505050506040513d601f19601f8201168201806040525081019061308d91906138aa565b10156130d45760405162461bcd60e51b8152602060048201526016602482015275494e53554646494349454e545f414c4c4f57414e434560501b6044820152606401610c54565b60025460018201546040516323b872dd60e01b81526000926001600160a01b0316916323b872dd9161311691339130916001600160801b031690600401613a29565b6020604051808303816000875af1158015613135573d6000803e3d6000fd5b505050506040513d601f19601f8201168201806040525081019061315991906138c3565b9050806131785760405162461bcd60e51b8152600401610c5490613a00565b60018201805460ff60801b198116600160801b179091556002830180546001600160a01b031916339081179091556040516001600160801b03928316815290918716907f559fc5bc8ed2bfe26d9c4c72e91c32b86465d9c5c043fb1df2414da482c4ad519060200160405180910390a3600192505050612856565b7f00000000000000000000000000000000000000000000000000000000000000006001600160a01b0316331461323b5760405162461bcd60e51b8152600401610c5490613b25565b600354604080516060808252600f908201526e23b7bb32b93730b731b2aa37b5b2b760891b60808201526001600160a01b03928316602082015291831682820152517fe1dfa83513a4b65c296bc64d8a68945cb723d798739225012d7167dbb2d6e3fc9181900360a00190a1600380546001600160a01b0319166001600160a01b0392909216919091179055565b7f00000000000000000000000000000000000000000000000000000000000000006001600160a01b031633146133115760405162461bcd60e51b8152600401610c5490613b25565b600154604051636902622f60e11b81526001600160a01b039091169063d204c45e906133439085908590600401613c6b565b600060405180830381600087803b15801561335d57600080fd5b505af1158015613371573d6000803e3d6000fd5b505050505050565b6001600160a01b0381166000908152600a602052604090205460ff166133b15760405162461bcd60e51b8152600401610c5490613b25565b6001600160a01b0381166000908152600d60205260408120546133d690600290613bfb565b6001600160a01b0383166000908152600d602052604081208054929350839290919061340390849061395e565b909155505060035460405163a9059cbb60e01b8152306004820152602481018390526001600160a01b039091169063a9059cbb906044016020604051808303816000875af1158015613459573d6000803e3d6000fd5b505050506040513d601f19601f8201168201806040525081019061347d91906138c3565b50806005600082825461349091906138f6565b90915550505050565b60005b838110156134b457818101518382015260200161349c565b50506000910152565b600081518084526134d5816020860160208601613499565b601f01601f19169290920160200192915050565b6020815260006134fc60208301846134bd565b9392505050565b80356001600160801b038116811461351a57600080fd5b919050565b6001600160a01b038116811461353457600080fd5b50565b6000806040838503121561354a57600080fd5b61355383613503565b915060208301356135638161351f565b809150509250929050565b6020808252825182820181905260009190848201906040850190845b818110156135af5783516001600160801b03168352928401929184019160010161358a565b50909695505050505050565b6000602082840312156135cd57600080fd5b6134fc82613503565b600080604083850312156135e957600080fd5b50508035926020909101359150565b6020808252825182820181905260009190848201906040850190845b818110156135af57835183529284019291840191600101613614565b60006020828403121561364257600080fd5b81356134fc8161351f565b81516001600160a01b031681526020808301516001600160801b0316908201526040808301511515908201526060808301511515908201526080808301516101008301916136a5908401826001600160a01b03169052565b5060a08301516136b960a084018215159052565b5060c08301516136cd60c084018215159052565b5060e08301516136e160e084018215159052565b5092915050565b6000602082840312156136fa57600080fd5b5035919050565b801515811461353457600080fd5b6000806040838503121561372257600080fd5b61372b83613503565b9150602083013561356381613701565b6000806040838503121561374e57600080fd5b61375783613503565b915061376560208401613503565b90509250929050565b634e487b7160e01b600052604160045260246000fd5b604051601f8201601f1916810167ffffffffffffffff811182821017156137ad576137ad61376e565b604052919050565b600067ffffffffffffffff8211156137cf576137cf61376e565b50601f01601f191660200190565b600080604083850312156137f057600080fd5b82356137fb8161351f565b9150602083013567ffffffffffffffff81111561381757600080fd5b8301601f8101851361382857600080fd5b803561383b613836826137b5565b613784565b81815286602083850101111561385057600080fd5b816020840160208301376000602083830101528093505050509250929050565b600181811c9082168061388457607f821691505b6020821081036138a457634e487b7160e01b600052602260045260246000fd5b50919050565b6000602082840312156138bc57600080fd5b5051919050565b6000602082840312156138d557600080fd5b81516134fc81613701565b634e487b7160e01b600052601160045260246000fd5b80820180821115610f9f57610f9f6138e0565b634e487b7160e01b600052603260045260246000fd5b600060018201613931576139316138e0565b5060010190565b60006001600160801b03808316818103613954576139546138e0565b6001019392505050565b81810381811115610f9f57610f9f6138e0565b6020808252600e908201526d4e6f2072652d656e7472616e637960901b604082015260600190565b6001600160801b038181168382160280821691908281146139bc576139bc6138e0565b505092915050565b634e487b7160e01b600052601260045260246000fd5b60006001600160801b03808416806139f4576139f46139c4565b92169190910492915050565b6020808252600f908201526e1514905394d1915497d19052531151608a1b604082015260600190565b6001600160a01b0393841681529190921660208201526001600160801b03909116604082015260600190565b60006020808385031215613a6857600080fd5b825167ffffffffffffffff80821115613a8057600080fd5b818501915085601f830112613a9457600080fd5b815181811115613aa657613aa661376e565b8060051b9150613ab7848301613784565b8181529183018401918481019088841115613ad157600080fd5b938501935b83851015613aef57845182529385019390850190613ad6565b98975050505050505050565b60208082526010908201526f1053149150511657d49154d3d315915160821b604082015260600190565b6020808252600c908201526b2727aa2fa922a9a7a62b22a960a11b604082015260600190565b600060208284031215613b5d57600080fd5b815167ffffffffffffffff811115613b7457600080fd5b8201601f81018413613b8557600080fd5b8051613b93613836826137b5565b818152856020838501011115613ba857600080fd5b613bb9826020830160208601613499565b95945050505050565b60ff8181168382160190811115610f9f57610f9f6138e0565b6001600160801b038281168282160390808211156136e1576136e16138e0565b600082613c0a57613c0a6139c4565b500490565b6001600160801b038181168382160190808211156136e1576136e16138e0565b600060208284031215613c4157600080fd5b81516134fc8161351f565b600060ff821660ff8103613c6257613c626138e0565b60010192915050565b6001600160a01b0383168152604060208201819052600090613c8f908301846134bd565b94935050505056fea2646970667358221220b715ddfbe675cf49e5b5caec5ea21f1bcc28c1facbd5a9576da6f8568c9aec0064736f6c63430008140033",
  "devdoc": {
    "kind": "dev",
    "methods": {},
    "version": 1
  },
  "userdoc": {
    "kind": "user",
    "methods": {},
    "version": 1
  },
  "storageLayout": {
    "storage": [
      {
        "astId": 5374,
        "contract": "contracts/CropMarketplace.sol:CropMarketplace",
        "label": "name",
        "offset": 0,
        "slot": "0",
        "type": "t_string_storage"
      },
      {
        "astId": 5377,
        "contract": "contracts/CropMarketplace.sol:CropMarketplace",
        "label": "nft",
        "offset": 0,
        "slot": "1",
        "type": "t_contract(CropNft)7295"
      },
      {
        "astId": 5380,
        "contract": "contracts/CropMarketplace.sol:CropMarketplace",
        "label": "coin",
        "offset": 0,
        "slot": "2",
        "type": "t_contract(IERC20)934"
      },
      {
        "astId": 5383,
        "contract": "contracts/CropMarketplace.sol:CropMarketplace",
        "label": "governanceToken",
        "offset": 0,
        "slot": "3",
        "type": "t_contract(IERC20)934"
      },
      {
        "astId": 5388,
        "contract": "contracts/CropMarketplace.sol:CropMarketplace",
        "label": "assets",
        "offset": 0,
        "slot": "4",
        "type": "t_mapping(t_uint128,t_struct(AssetData)5457_storage)"
      },
      {
        "astId": 5391,
        "contract": "contracts/CropMarketplace.sol:CropMarketplace",
        "label": "totalGovernanceToken",
        "offset": 0,
        "slot": "5",
        "type": "t_uint256"
      },
      {
        "astId": 5394,
        "contract": "contracts/CropMarketplace.sol:CropMarketplace",
        "label": "totalMarketToken",
        "offset": 0,
        "slot": "6",
        "type": "t_uint256"
      },
      {
        "astId": 5397,
        "contract": "contracts/CropMarketplace.sol:CropMarketplace",
        "label": "minResolvers",
        "offset": 0,
        "slot": "7",
        "type": "t_uint256"
      },
      {
        "astId": 5402,
        "contract": "contracts/CropMarketplace.sol:CropMarketplace",
        "label": "disputes",
        "offset": 0,
        "slot": "8",
        "type": "t_mapping(t_uint128,t_struct(Dispute)5479_storage)"
      },
      {
        "astId": 5405,
        "contract": "contracts/CropMarketplace.sol:CropMarketplace",
        "label": "disputeIds",
        "offset": 0,
        "slot": "9",
        "type": "t_array(t_uint128)dyn_storage"
      },
      {
        "astId": 5409,
        "contract": "contracts/CropMarketplace.sol:CropMarketplace",
        "label": "isResolver",
        "offset": 0,
        "slot": "10",
        "type": "t_mapping(t_address,t_bool)"
      },
      {
        "astId": 5413,
        "contract": "contracts/CropMarketplace.sol:CropMarketplace",
        "label": "resolverReward",
        "offset": 0,
        "slot": "11",
        "type": "t_mapping(t_address,t_uint128)"
      },
      {
        "astId": 5420,
        "contract": "contracts/CropMarketplace.sol:CropMarketplace",
        "label": "resolverStakeRequirement",
        "offset": 0,
        "slot": "12",
        "type": "t_uint256"
      },
      {
        "astId": 5424,
        "contract": "contracts/CropMarketplace.sol:CropMarketplace",
        "label": "resolverStake",
        "offset": 0,
        "slot": "13",
        "type": "t_mapping(t_address,t_uint256)"
      },
      {
        "astId": 5427,
        "contract": "contracts/CropMarketplace.sol:CropMarketplace",
        "label": "xfiToCrop",
        "offset": 0,
        "slot": "14",
        "type": "t_uint256"
      },
      {
        "astId": 5434,
        "contract": "contracts/CropMarketplace.sol:CropMarketplace",
        "label": "disputeStartTime",
        "offset": 0,
        "slot": "15",
        "type": "t_mapping(t_uint128,t_uint256)"
      },
      {
        "astId": 5440,
        "contract": "contracts/CropMarketplace.sol:CropMarketplace",
        "label": "hasVoted",
        "offset": 0,
        "slot": "16",
        "type": "t_mapping(t_uint128,t_mapping(t_address,t_bool))"
      },
      {
        "astId": 5551,
        "contract": "contracts/CropMarketplace.sol:CropMarketplace",
        "label": "assetIds",
        "offset": 0,
        "slot": "17",
        "type": "t_array(t_uint128)dyn_storage"
      },
      {
        "astId": 5553,
        "contract": "contracts/CropMarketplace.sol:CropMarketplace",
        "label": "locked",
        "offset": 0,
        "slot": "18",
        "type": "t_bool"
      }
    ],
    "types": {
      "t_address": {
        "encoding": "inplace",
        "label": "address",
        "numberOfBytes": "20"
      },
      "t_array(t_address)dyn_storage": {
        "base": "t_address",
        "encoding": "dynamic_array",
        "label": "address[]",
        "numberOfBytes": "32"
      },
      "t_array(t_uint128)dyn_storage": {
        "base": "t_uint128",
        "encoding": "dynamic_array",
        "label": "uint128[]",
        "numberOfBytes": "32"
      },
      "t_bool": {
        "encoding": "inplace",
        "label": "bool",
        "numberOfBytes": "1"
      },
      "t_contract(CropNft)7295": {
        "encoding": "inplace",
        "label": "contract CropNft",
        "numberOfBytes": "20"
      },
      "t_contract(IERC20)934": {
        "encoding": "inplace",
        "label": "contract IERC20",
        "numberOfBytes": "20"
      },
      "t_mapping(t_address,t_bool)": {
        "encoding": "mapping",
        "key": "t_address",
        "label": "mapping(address => bool)",
        "numberOfBytes": "32",
        "value": "t_bool"
      },
      "t_mapping(t_address,t_uint128)": {
        "encoding": "mapping",
        "key": "t_address",
        "label": "mapping(address => uint128)",
        "numberOfBytes": "32",
        "value": "t_uint128"
      },
      "t_mapping(t_address,t_uint256)": {
        "encoding": "mapping",
        "key": "t_address",
        "label": "mapping(address => uint256)",
        "numberOfBytes": "32",
        "value": "t_uint256"
      },
      "t_mapping(t_uint128,t_mapping(t_address,t_bool))": {
        "encoding": "mapping",
        "key": "t_uint128",
        "label": "mapping(uint128 => mapping(address => bool))",
        "numberOfBytes": "32",
        "value": "t_mapping(t_address,t_bool)"
      },
      "t_mapping(t_uint128,t_struct(AssetData)5457_storage)": {
        "encoding": "mapping",
        "key": "t_uint128",
        "label": "mapping(uint128 => struct CropMarketplace.AssetData)",
        "numberOfBytes": "32",
        "value": "t_struct(AssetData)5457_storage"
      },
      "t_mapping(t_uint128,t_struct(Dispute)5479_storage)": {
        "encoding": "mapping",
        "key": "t_uint128",
        "label": "mapping(uint128 => struct CropMarketplace.Dispute)",
        "numberOfBytes": "32",
        "value": "t_struct(Dispute)5479_storage"
      },
      "t_mapping(t_uint128,t_uint256)": {
        "encoding": "mapping",
        "key": "t_uint128",
        "label": "mapping(uint128 => uint256)",
        "numberOfBytes": "32",
        "value": "t_uint256"
      },
      "t_string_storage": {
        "encoding": "bytes",
        "label": "string",
        "numberOfBytes": "32"
      },
      "t_struct(AssetData)5457_storage": {
        "encoding": "inplace",
        "label": "struct CropMarketplace.AssetData",
        "members": [
          {
            "astId": 5442,
            "contract": "contracts/CropMarketplace.sol:CropMarketplace",
            "label": "owner",
            "offset": 0,
            "slot": "0",
            "type": "t_address"
          },
          {
            "astId": 5444,
            "contract": "contracts/CropMarketplace.sol:CropMarketplace",
            "label": "price",
            "offset": 0,
            "slot": "1",
            "type": "t_uint128"
          },
          {
            "astId": 5446,
            "contract": "contracts/CropMarketplace.sol:CropMarketplace",
            "label": "payedFor",
            "offset": 16,
            "slot": "1",
            "type": "t_bool"
          },
          {
            "astId": 5448,
            "contract": "contracts/CropMarketplace.sol:CropMarketplace",
            "label": "booked",
            "offset": 17,
            "slot": "1",
            "type": "t_bool"
          },
          {
            "astId": 5450,
            "contract": "contracts/CropMarketplace.sol:CropMarketplace",
            "label": "buyer",
            "offset": 0,
            "slot": "2",
            "type": "t_address"
          },
          {
            "astId": 5452,
            "contract": "contracts/CropMarketplace.sol:CropMarketplace",
            "label": "buyerChecked",
            "offset": 20,
            "slot": "2",
            "type": "t_bool"
          },
          {
            "astId": 5454,
            "contract": "contracts/CropMarketplace.sol:CropMarketplace",
            "label": "sellerChecked",
            "offset": 21,
            "slot": "2",
            "type": "t_bool"
          },
          {
            "astId": 5456,
            "contract": "contracts/CropMarketplace.sol:CropMarketplace",
            "label": "disputed",
            "offset": 22,
            "slot": "2",
            "type": "t_bool"
          }
        ],
        "numberOfBytes": "96"
      },
      "t_struct(Dispute)5479_storage": {
        "encoding": "inplace",
        "label": "struct CropMarketplace.Dispute",
        "members": [
          {
            "astId": 5459,
            "contract": "contracts/CropMarketplace.sol:CropMarketplace",
            "label": "id",
            "offset": 0,
            "slot": "0",
            "type": "t_uint256"
          },
          {
            "astId": 5461,
            "contract": "contracts/CropMarketplace.sol:CropMarketplace",
            "label": "nftId",
            "offset": 0,
            "slot": "1",
            "type": "t_uint128"
          },
          {
            "astId": 5463,
            "contract": "contracts/CropMarketplace.sol:CropMarketplace",
            "label": "buyer",
            "offset": 0,
            "slot": "2",
            "type": "t_address"
          },
          {
            "astId": 5465,
            "contract": "contracts/CropMarketplace.sol:CropMarketplace",
            "label": "seller",
            "offset": 0,
            "slot": "3",
            "type": "t_address"
          },
          {
            "astId": 5467,
            "contract": "contracts/CropMarketplace.sol:CropMarketplace",
            "label": "resolved",
            "offset": 20,
            "slot": "3",
            "type": "t_bool"
          },
          {
            "astId": 5470,
            "contract": "contracts/CropMarketplace.sol:CropMarketplace",
            "label": "resolvers",
            "offset": 0,
            "slot": "4",
            "type": "t_array(t_address)dyn_storage"
          },
          {
            "astId": 5474,
            "contract": "contracts/CropMarketplace.sol:CropMarketplace",
            "label": "votes",
            "offset": 0,
            "slot": "5",
            "type": "t_mapping(t_address,t_bool)"
          },
          {
            "astId": 5476,
            "contract": "contracts/CropMarketplace.sol:CropMarketplace",
            "label": "buyerVotes",
            "offset": 0,
            "slot": "6",
            "type": "t_uint8"
          },
          {
            "astId": 5478,
            "contract": "contracts/CropMarketplace.sol:CropMarketplace",
            "label": "sellerVotes",
            "offset": 1,
            "slot": "6",
            "type": "t_uint8"
          }
        ],
        "numberOfBytes": "224"
      },
      "t_uint128": {
        "encoding": "inplace",
        "label": "uint128",
        "numberOfBytes": "16"
      },
      "t_uint256": {
        "encoding": "inplace",
        "label": "uint256",
        "numberOfBytes": "32"
      },
      "t_uint8": {
        "encoding": "inplace",
        "label": "uint8",
        "numberOfBytes": "1"
      }
    }
  }
}